:100000000C945E000C9486000C9486000C94860080
:100010000C9486000C9486000C9486000C94860048
:100020000C9486000C9486000C9486000C94860038
:100030000C9486000C9486000C9486000C94860028
:100040000C9410040C9486000C9480040C945A04B4
:100050000C9486000C9486000C9486000C94860008
:100060000C9486000C948600000000080002010039
:100070000003040700000000000000000000000072
:10008000250028002B0000000000240027002A0083
:10009000040404040404040402020202020203032E
:1000A0000303030301020408102040800102040836
:1000B0001020010204081020B204EB0611241FBE18
:1000C000CFEFD8E0DEBFCDBF21E0AEE1B1E001C0AF
:1000D0001D92A43EB207E1F711E0A0E0B1E0E2EA30
:1000E000F3E102C005900D92AE31B107D9F710E0EF
:1000F000CDE5D0E004C02197FE010E94C107CC35B8
:10010000D107C9F70E94EA040C94C4090C940000BA
:1001100090E0FC01EC55FF4F249180579F4FFC016C
:100120008491882399F090E0880F991FFC01EA5789
:10013000FF4FA591B491FC01E458FF4F8591949134
:100140008FB7F894EC91E22BEC938FBF089508954C
:10015000AF92BF92CF92DF92EF92FF920F931F93D5
:10016000CF93DF936C017B018B01040F151FEB0113
:100170005E01AE18BF08C017D10759F06991D601CA
:10018000ED91FC910190F081E02DC6010995892B3C
:1001900079F7C501DF91CF911F910F91FF90EF90FB
:1001A000DF90CF90BF90AF900895FC01538D448DA8
:1001B000252F30E0842F90E0821B930B541710F012
:1001C000CF96089501970895FC01918D828D98171F
:1001D00061F0A28DAE0FBF2FB11D5D968C91928DF7
:1001E0009F5F9F73928F90E008958FEF9FEF089528
:1001F0002FB7F89480912D0190912E01A0912F019D
:10020000B09130012FBF8093390190933A01A093B0
:100210003B01B0933C0181E391E00E94E40097FF31
:1002200026C02FB7F89480912D0190912E01A091B6
:100230002F01B09130012FBF4091390150913A0107
:1002400060913B0170913C01841B950BA60BB70B91
:10025000409135015091360160913701709138011C
:1002600084179507A607B707B0F28FEF9FEF0895A1
:10027000FC01918D828D981731F0828DE80FF11D70
:10028000858D90E008958FEF9FEF0895FC01918D8B
:10029000228D892F90E0805C9F4F821B91098F7384
:1002A0009927089581E391E00E94460121E0892B7E
:1002B00009F420E0822F089580E090E0892B29F056
:1002C0000E94520181110C9400000895FC01A48D3C
:1002D000A80FB92FB11DA35ABF4F2C91848D90E068
:1002E00001968F739927848FA689B7892C93A0894B
:1002F000B1898C91837080648C93938D848D9813D5
:1003000006C00288F389E02D80818F7D8083089567
:10031000EF92FF920F931F93CF93DF93EC0181E055
:10032000888F9B8D8C8D98131AC0E889F9898081FC
:1003300085FF15C09FB7F894EE89FF896083E8892F
:10034000F98980818370806480839FBF81E090E021
:10035000DF91CF911F910F91FF90EF900895F62EAE
:100360000B8D10E00F5F1F4F0F731127E02E8C8D48
:100370008E110CC00FB607FCFACFE889F98980818D
:1003800085FFF5CFCE010E946601F1CFEB8DEC0F1A
:10039000FD2FF11DE35AFF4FF0829FB7F8940B8FAA
:1003A000EA89FB8980818062CFCFCF93DF93EC0114
:1003B000888D8823B9F0AA89BB89E889F9898C914D
:1003C00085FD03C0808186FD0DC00FB607FCF7CF09
:1003D0008C9185FFF2CF808185FFEDCFCE010E9409
:1003E0006601E9CFDF91CF91089590E0FC01E859D3
:1003F000FF4F2491FC01EC55FF4F3491FC01E05775
:10040000FF4FE491EE23C9F0222339F0233001F1AC
:10041000A8F4213019F1223029F1F0E0EE0FFF1F8E
:10042000E458FF4FA591B4918FB7F894EC91611106
:1004300026C030953E233C938FBF08952730A9F006
:100440002830C9F0243049F7809180008F7D03C0A7
:10045000809180008F7780938000DFCF84B58F7785
:1004600084BDDBCF84B58F7DFBCF8091B0008F77CB
:100470008093B000D2CF8091B0008F7DF9CF3E2B1A
:10048000DACFCF93DF93EB0160E0209721F0C1300A
:10049000D10539F461E00E94F501CE01DF91CF91E1
:1004A0000895CFEFDFEFF9CF8F929F92AF92BF9277
:1004B0000F931F93CF93DF93CDB7DEB7A1970FB6FE
:1004C000F894DEBF0FBECDBF19A2423008F44AE057
:1004D0008E010F5D1F4F842E912CB12CA12CA501F4
:1004E00094010E949F07E62FB901CA01EA3044F542
:1004F000E05DD801EE938D01232B242B252B79F77A
:1005000090E080E0109769F0FD0101900020E9F78C
:100510003197AF014A1B5B0BBD0181E391E00E9463
:10052000A800A1960FB6F894DEBF0FBECDBFDF9135
:10053000CF911F910F91BF90AF909F908F90089592
:10054000E95CD7CF42E050E068E171E081E391E0FF
:100550000C94A800CF92DF92EF92FF92CF93DF939B
:100560006C01990FEE08FF08F7FE1DC06DE281E3F4
:1005700091E00E948801EC0166277727CB016C1976
:100580007D098E099F094AE00E945402C80FD91FB5
:100590000E94A2028C0F9D1FDF91CF91FF90EF90E0
:1005A000DF90CF9008954AE0C701B6010E9454023F
:1005B000EC01EECFCF93DF93EC0188819981009716
:1005C00011F00E946308198218821D821C821B820E
:1005D0001A82DF91CF910895FC018081918100976B
:1005E00011F00C94630808950F931F93CF93DF933A
:1005F0008C01EB01FC01808191810097E1F0688121
:10060000798161157105A9F0428153812C813D8169
:100610004217530770F00E94BD098C819D81F8013B
:10062000958384831D821C82DF91CF911F910F914E
:1006300008950E94630888819981F80191838083DD
:100640008A819B81938382838C819D81958384831E
:10065000198218821B821A82E5CF0F931F93CF93C2
:10066000DF93EC0188819981009759F02A813B81C1
:100670002617370730F081E0DF91CF911F910F915E
:1006800008958B016F5F7F4F0E94EC08009759F02F
:10069000998388831B830A832C813D81232B59F7FF
:1006A000FC011082E8CF80E0E7CFEF92FF920F933A
:1006B0001F93CF93DF936115710541F480E0DF91C3
:1006C000CF911F910F91FF90EF9008954115510523
:1006D000B1F07B01EC010C811D81040F151FB801E5
:1006E0000E942D03882351F3288139818C819D81BB
:1006F000B701820F931F0E94BD091D830C8381E007
:10070000DECFCF93DF93EC0141E050E06BE171E08D
:100710000E945503811103C0CE010E94DA02CE016E
:10072000DF91CF910895EF92FF920F931F93CF9394
:10073000DF93EC017B018A01BA010E942D03811134
:100740000BC0CE010E94DA02CE01DF91CF911F9142
:100750000F91FF90EF9008951D830C83B70188815E
:1007600099810E94BD09F0CFFC0111821082138291
:1007700012821582148250E040E06AE171E00C942C
:100780009303EF92FF920F931F93CF93DF93CDB715
:10079000DEB762970FB6F894DEBF0FBECDBF8C01F7
:1007A000CB01F80111821082138212821582148209
:1007B0004AE09E012F5F3F4F7901B9010E941E0759
:1007C000F70101900020E9F73197AF014E195F0959
:1007D000B701C8010E94930362960FB6F894DEBF7A
:1007E0000FBECDBFDF91CF911F910F91FF90EF9082
:1007F0000895CF93DF93EC016115710571F0FB0152
:1008000001900020E9F73197AF01461B570B0E947A
:100810009303CE01DF91CF9108950E94DA02F9CFC0
:100820001F920F920FB60F9211242F933F938F9325
:100830009F93AF93BF9380912D0190912E01A09132
:100840002F01B091300130912C0123E0230F2D377F
:1008500058F50196A11DB11D20932C0180932D0107
:1008600090932E01A0932F01B09330018091280125
:1008700090912901A0912A01B0912B010196A11D0F
:10088000B11D8093280190932901A0932A01B09370
:100890002B01BF91AF919F918F913F912F910F901D
:1008A0000FBE0F901F90189526E8230F0296A11DEA
:1008B000B11DD2CF1F920F920FB60F9211242F931A
:1008C0003F934F935F936F937F938F939F93AF93D8
:1008D000BF93EF93FF9381E391E00E946601FF9144
:1008E000EF91BF91AF919F918F917F916F915F91A8
:1008F0004F913F912F910F900FBE0F901F90189521
:100900001F920F920FB60F9211242F938F939F93E4
:10091000EF93FF93E0914101F09142018081E091DA
:100920004701F091480182FD1BC0908180914A01EE
:100930008F5F8F7320914B01821741F0E0914A0144
:10094000F0E0EF5CFE4F958F80934A01FF91EF91AD
:100950009F918F912F910F900FBE0F901F90189520
:100960008081F4CFE1E3F1E01382128288EE93E01C
:10097000A0E0B0E084839583A683B7838AE091E00A
:100980009183808385EC90E09587848784EC90E068
:100990009787868780EC90E0918B808B81EC90E04C
:1009A000938B828B82EC90E0958B848B86EC90E02D
:1009B000978B868B118E128E138E148E8AED91E09A
:1009C0000E94B40384ED91E00E94B4038EEC91E0A8
:1009D0000C94B403CF93DF93CDB7DEB768970FB60F
:1009E000F894DEBF0FBECDBF789484B5826084BD1D
:1009F00084B5816084BD85B5826085BD85B5816023
:100A000085BD80916E00816080936E0010928100A0
:100A1000809181008260809381008091810081605B
:100A2000809381008091800081608093800080911C
:100A3000B10084608093B1008091B00081608093A8
:100A4000B00080917A00846080937A0080917A006F
:100A5000826080937A0080917A00816080937A002E
:100A600080917A00806880937A001092C100E091B2
:100A70004101F091420182E08083E0913D01F091DB
:100A80003E011082E0913F01F09140018FEC8083A4
:100A900010924901E0914501F091460186E0808382
:100AA000E0914301F0914401808180618083E09175
:100AB0004301F0914401808188608083E09143018B
:100AC000F0914401808180688083E0914301F0913E
:100AD000440180818F7D80838CE00E9488008BE0C0
:100AE0000E9488008DE00E94880080E0A82E80E0AF
:100AF000B82E81E391E00E944601181619060CF009
:100B0000CCC0CE0101960E94B4030E94F80097FD6C
:100B10000CC08F83188641E050E0BE01695F7F4FB3
:100B2000CE0101960E945503F0CFBE016F5F7F4F4B
:100B300084ED91E00E94F402CE0101960E94EC0245
:100B40008091D8019091D901892B71F0E090D40166
:100B5000F090D5016AE370E0C7010E94B2098C01F0
:100B60000E191F09892B11F40FEF1FEF10932701A6
:100B700000932601CE0101960E94B4038091D80112
:100B80009091D9010097E1F078018017910708F45E
:100B90007C01E091D401F091D501EE0DFF1DD080D4
:100BA00010826091D4017091D501CE0101960E940E
:100BB000F903E091D401F091D501EE0DFF1DD08233
:100BC000BE016F5F7F4F8AED91E00E94F402CE017B
:100BD00001960E94EC028091DA019091DB0100976E
:100BE00009F467C00E94F7066B01709325016093BA
:100BF00024010F5F1F4F8090D8019090D90180167B
:100C0000910628F4902F812F8401892E982ECE01F1
:100C100001960E94B403E090D801F090D9010E151E
:100C20001F05F0F48E149F0408F47401E091D401C0
:100C3000F091D501EE0DFF1D908010826091D401DE
:100C40007091D501600F711FCE0101960E94F903CA
:100C50008091D4019091D501E80EF91EF7019082A0
:100C6000BE016F5F7F4F8EEC91E00E94F402CE01D7
:100C700001960E94EC028091CE019091CF010097E5
:100C8000E1F00E94F706F2E0CF16D10409F491C01A
:100C9000C4F4CA94CD2809F481C0A114B10409F4A4
:100CA00028CF0E945201882309F423CF0E9400001C
:100CB00020CF60E070E0CB0197CF60E070E0CB0127
:100CC000E2CFF3E0CF16D10409F47CC024E0C216D1
:100CD000D10419F760911E0170911F01CE01439656
:100CE0000E94C1036091200170912101CE010D96F7
:100CF0000E94C1036091220170912301CE010196EF
:100D00000E94C10318861F821A8619861C861B86BC
:100D100069817A816115710531F04D815E81CE0165
:100D200007960E949303CE0107960E9481038C01CF
:100D300049895A896D857E850E945503811103C0BA
:100D4000C8010E94DA02C8010E9481038C014F8908
:100D5000588D6B897C890E945503811103C0C8019D
:100D60000E94DA02F801448155816081718181E33A
:100D700091E00E94A8000E94A202CE0107960E9464
:100D8000EC02CE0101960E94EC02CE010D960E946B
:100D9000EC02CE0143960E94EC027FCF8BE090E004
:100DA0000E94410290932301809322010E94AA0293
:100DB00074CF8CE090E00E944102909321018093D7
:100DC0002001F4CF8DE090E00E94410290931F013A
:100DD00080931E01EBCF8EEC91E00E94EC0284ED3B
:100DE00091E00E94EC028AED91E00C94EC021F93DA
:100DF000FC0199278827BC01E89411911032E9F38E
:100E0000193010F01E30C8F31B3251F01D3249F476
:100E1000689406C00E942907610F711D811D911DF4
:100E2000119110531A30B0F33EF49095809570955F
:100E300061957F4F8F4F9F4F1F910895BB274A3079
:100E400031F4992322F4BDE2909581959F4F0C9443
:100E50003F07592F482F372F262F660F771F881FE0
:100E6000991F660F771F881F991F620F731F841FBA
:100E7000951F660F771F881F991F0895BB27FB01D9
:100E80005527AA27880F991FAA1FA41710F0A41B83
:100E900083955051B9F7A05DAA3308F0A95DA193DD
:100EA000009779F7B111B1931192CB010C945807C7
:100EB000DC01FC01672F71917723E1F7329704C0C1
:100EC0007C916D9370836291AE17BF07C8F308954C
:100ED0002F923F924F925F926F927F928F929F924A
:100EE000AF92BF92CF92DF92EF92FF920F931F9338
:100EF000CF93DF93CDB7DEB7CA1BDB0B0FB6F894E9
:100F0000DEBF0FBECDBF09942A88398848885F8428
:100F10006E847D848C849B84AA84B984C884DF8099
:100F2000EE80FD800C811B81AA81B981CE0FD11D7D
:100F30000FB6F894DEBF0FBECDBFED010895A1E25C
:100F40001A2EAA1BBB1BFD010DC0AA1FBB1FEE1F43
:100F5000FF1FA217B307E407F50720F0A21BB30B8E
:100F6000E40BF50B661F771F881F991F1A9469F70A
:100F700060957095809590959B01AC01BD01CF0166
:100F80000895EE0FFF1F0590F491E02D09940F9343
:100F90001F93CF93DF938230910510F482E090E0AD
:100FA000E091E201F091E30130E020E0B0E0A0E068
:100FB000309799F42115310509F44AC0281B390BE3
:100FC00024303105D8F58A819B816115710589F13D
:100FD000FB0193838283FE0111C040815181028114
:100FE000138148175907E0F04817590799F41097EB
:100FF00061F012960C93129713961C933296CF01C0
:10100000DF91CF911F910F9108950093E20110930A
:10101000E301F4CF2115310551F04217530738F0A1
:10102000A901DB019A01BD01DF01F801C1CFEF0188
:10103000F9CF9093E3018093E201CDCFFE01E20F5F
:10104000F31F819391932250310939832883D7CF9D
:101050002091E0013091E101232B41F42091020124
:10106000309103013093E1012093E00120910001D0
:10107000309101012115310541F42DB73EB7409162
:10108000040150910501241B350BE091E001F09122
:10109000E101E217F307A0F42E1B3F0B28173907D5
:1010A00078F0AC014E5F5F4F2417350748F04E0FC4
:1010B0005F1F5093E1014093E001819391939FCF93
:1010C000F0E0E0E09CCFCF93DF930097E9F0FC01E4
:1010D000329713821282A091E201B091E301ED01F7
:1010E00030E020E01097A1F420813181820F931F1E
:1010F0002091E0013091E1012817390709F061C022
:10110000F093E101E093E001DF91CF910895EA01CE
:10111000CE17DF07E8F54A815B819E014115510535
:10112000B1F7E901FB83EA8349915991C40FD51FB7
:10113000EC17FD0761F4808191810296840F951F61
:10114000E90199838883828193819B838A83F0E07C
:10115000E0E012968D919C9113970097B9F52D912F
:101160003C911197CD010296820F931F2091E001CF
:101170003091E1012817390739F6309751F510926F
:10118000E3011092E201B093E101A093E001BCCF32
:10119000D383C28340815181840F951FC817D9071B
:1011A00061F44E5F5F4F88819981480F591F5183C9
:1011B00040838A819B81938382832115310509F0C5
:1011C000B0CFF093E301E093E2019ECFFD01DC019B
:1011D000C0CF13821282D7CFB0E0A0E0E2EFF8E0F8
:1011E0000C946A078C01009751F4CB010E94C70749
:1011F0008C01C801CDB7DEB7E0E10C948607FC0195
:10120000E60FF71F9C0122503109E217F30708F49B
:101210009DC0D901CD91DC911197C617D70798F0E1
:10122000C530D10530F3CE0104978617970708F330
:10123000C61BD70B2297C193D1936D937C93CF019B
:101240000E946308D6CF5B01AC1ABD0A4C018C0E1C
:101250009D1EA091E201B091E301512C412CF12C93
:10126000E12C109731F58091E0019091E101881512
:10127000990509F05CC04616570608F058C08091E1
:10128000000190910101009741F48DB79EB7409104
:10129000040150910501841B950BE817F90708F02C
:1012A00055C0F093E101E093E001F901718360839F
:1012B000A0CF8D919C91119712966C9012971396D6
:1012C0007C901397A815B90559F56C0142E0C40E3E
:1012D000D11CCA14DB0420F1AC014A195B09DA0104
:1012E0001296159780F06282738251834083D901F0
:1012F0006D937C93E114F10471F0D7011396FC9384
:10130000EE93129776CF22968C0F9D1FF901918351
:101310008083F301EFCFF093E301E093E20169CF23
:101320004816590608F42C017D01D3019ACFCB0150
:101330000E94C7077C01009749F0AE01B8010E94E6
:10134000A909C8010E946308870153CF10E000E09B
:1013500050CFFB01DC0102C001900D924150504082
:10136000D8F70895FC018191861721F08823D9F7D9
:10137000992708953197CF010895FB01DC01019071
:101380000D920020E1F7089510E0CDE5D0E004C013
:10139000FE010E94C1072196CE35D107C9F7F89406
:0213A000FFCF7D
:1013A2000000E4018000000000008801A800D500D0
:0E13B200D5014601E40038010D0A002C0000B0
:00000001FF
