:100000000C94B3000C94DB000C94DB000C94DB002C
:100010000C94DB000C94DB000C94DB000C94DB00F4
:100020000C94DB000C94DB000C94DB000C94DB00E4
:100030000C94DB000C94DB000C94DB000C94DB00D4
:100040000C9485050C94DB000C9453050C942D0541
:100050000C94DB000C94DB000C94DB000C94DB00B4
:100060000C94DB000C94DB0000407A10F35A00A0E3
:10007000724E18090010A5D4E80000E87648170071
:1000800000E40B54020000CA9A3B000000E1F505B1
:10009000000080969800000040420F000000A086FB
:1000A00001000000102700000000E803000000002D
:1000B0006400000000000A000000000001000000D1
:1000C00000002C76D888DC674F0823DFC1DFAE59EB
:1000D000E1B1B796E5E3E453C63AE651997696E87E
:1000E000E6C28426EB898C9B62ED407C6FFCEFBC02
:1000F0009C9F40F2BAA56FA5F490055A2AF75C932D
:100100006B6CF9676DC11BFCE0E40D47FEF520E662
:10011000B500D0ED902E0300943577050080841E45
:10012000080000204E0A000000C80C333333330FA0
:10013000986E12831141EF8D2114893BE65516CF3D
:10014000FEE6DB18D1844B381BF77C1D901DA4BB49
:10015000E424203284725E228100C9F124ECA1E5FE
:100160003D27CF05F80711241FBECFEFD8E0DEBF33
:10017000CDBF22E0A4E2B1E001C01D92A032B207DF
:10018000E1F711E0A0E0B1E0E8E1FDE102C0059097
:100190000D92A432B107D9F710E0C2EBD0E004C051
:1001A0002197FE010E947C0CC13BD107C9F70E9438
:1001B00048060C947F0E0C9400000895AF92BF92F5
:1001C000CF92DF92EF92FF920F931F93CF93DF9323
:1001D0006C017B018B01040F151FEB015E01AE1852
:1001E000BF08C017D10759F06991D601ED91FC9174
:1001F0000190F081E02DC6010995892B79F7C501A1
:10020000DF91CF911F910F91FF90EF90DF90CF90F2
:10021000BF90AF900895CF93DF93FC014481558147
:100220006081718187E391E00E94DE00EC0142E091
:1002300050E068E171E087E391E00E94DE008C0FFE
:100240009D1FDF91CF910895FC01538D448D252F83
:1002500030E0842F90E0821B930B541710F0CF9660
:10026000089501970895FC01918D828D981761F092
:10027000A28DAE0FBF2FB11D5D968C91928D9F5FA9
:100280009F73928F90E008958FEF9FEF08952FB79F
:10029000F8948091330190913401A0913501B0918F
:1002A00036012FBF80933F0190934001A0934101FD
:1002B000B093420187E391E00E94330197FF26C08B
:1002C0002FB7F8948091330190913401A0913501BA
:1002D000B09136012FBF40913F0150914001609194
:1002E000410170914201841B950BA60BB70B409105
:1002F0003B0150913C0160913D0170913E0184179A
:100300009507A607B707B0F28FEF9FEF0895FC019E
:10031000918D828D981731F0828DE80FF11D858DBA
:1003200090E008958FEF9FEF0895FC01918D228D4D
:10033000892F90E0805C9F4F821B91098F739927D2
:10034000089587E391E00E94950121E0892B09F44B
:1003500020E0822F089580E090E0892B29F00E9410
:10036000A10181110C9400000895FC01A48DA80F37
:10037000B92FB11DA35ABF4F2C91848D90E00196E7
:100380008F739927848FA689B7892C93A089B18907
:100390008C91837080648C93938D848D981306C0A8
:1003A0000288F389E02D80818F7D80830895EF920C
:1003B000FF920F931F93CF93DF93EC0181E0888F1F
:1003C0009B8D8C8D98131AC0E889F989808185FFEF
:1003D00015C09FB7F894EE89FF896083E889F98991
:1003E00080818370806480839FBF81E090E0DF9193
:1003F000CF911F910F91FF90EF900895F62E0B8DE6
:1004000010E00F5F1F4F0F731127E02E8C8D8E11A0
:100410000CC00FB607FCFACFE889F989808185FF07
:10042000F5CFCE010E94B501F1CFEB8DEC0FFD2F82
:10043000F11DE35AFF4FF0829FB7F8940B8FEA89C2
:10044000FB8980818062CFCFCF93DF93EC01888DD1
:100450008823B9F0AA89BB89E889F9898C9185FD3F
:1004600003C0808186FD0DC00FB607FCF7CF8C91CD
:1004700085FFF2CF808185FFEDCFCE010E94B501CF
:10048000E9CFDF91CF9108958E50806480937C00F6
:1004900080917A00806480937A0080917A0086FD52
:1004A000FCCF809178009091790008953FB7F8943F
:1004B0008091250190912601A0912701B0912801FA
:1004C00026B5A89B05C02F3F19F00196A11DB11DAF
:1004D0003FBFBA2FA92F982F8827BC01CD01620FEB
:1004E000711D811D911D42E0660F771F881F991FA6
:1004F0004A95D1F70895CF92DF92EF92FF920F9332
:100500001F93CF93DF93FC012081222309F457C06E
:10051000EC0181859285019709F04EC02FB7F894C0
:1005200060913301709134018091350190913601D1
:100530002FBF0B891C892D893E896B017C01C01A54
:10054000D10AE20AF30A09811A812B813C81C01683
:10055000D106E206F30698F16B8B7C8B8D8B9E8B1C
:100560008B859C85AD85BE854D815E816F8178854B
:10057000481B590B6A0B7B0B413051056105710516
:1005800049F48F3FFFEF9F07AF07BF0719F01882AD
:10059000188A1F860196A11DB11D8B879C87AD8788
:1005A000BE87E989FA89DF91CF911F910F91FF9062
:1005B000EF90DF90CF9009940E945602BACFDF915E
:1005C000CF911F910F91FF90EF90DF90CF90089502
:1005D000CF93DF93FC0121893289232BF1F0EC01C9
:1005E000818592850197E1F42FB7F89480913301CA
:1005F00090913401A0913501B09136012FBF838BCA
:10060000948BA58BB68B81E088831B861C861D8608
:100610001E8681E090E0988B8F87DF91CF910895BF
:100620000E9456026B8B7C8B8D8B9E8BECCFCF9375
:10063000DF93EC0188819981009711F00E941E0DD3
:10064000198218821D821C821B821A82DF91CF912F
:100650000895FC0180819181009711F00C941E0D8A
:1006600008950F931F93CF93DF938C01EB01FC014F
:10067000808191810097E1F0688179816115710530
:10068000A9F0428153812C813D814217530770F0BC
:100690000E94780E8C819D81F801958384831D8250
:1006A0001C82DF91CF911F910F9108950E941E0D22
:1006B00088819981F801918380838A819B819383CA
:1006C00082838C819D8195838483198218821B8209
:1006D0001A82E5CF0F931F93CF93DF93EC018881AC
:1006E0009981009759F02A813B812617370730F00E
:1006F00081E0DF91CF911F910F9108958B016F5F82
:100700007F4F0E94A70D009759F0998388831B8320
:100710000A832C813D81232B59F7FC011082E8CFFD
:1007200080E0E7CFEF92FF920F931F93CF93DF9379
:100730006115710541F480E0DF91CF911F910F9118
:10074000FF90EF90089541155105B1F07B01EC0148
:100750000C811D81040F151FB8010E946A038823B4
:1007600051F3288139818C819D81B701820F931FBC
:100770000E94780E1D830C8381E0DECFCF93DF9340
:10078000EC01FB0144815581608171810E949203DB
:10079000811103C0CE010E941703CE01DF91CF91DA
:1007A0000895EF92FF920F931F93CF93DF93EC0185
:1007B0007B018A01BA010E946A0381110BC0CE013C
:1007C0000E941703CE01DF91CF911F910F91FF90EF
:1007D000EF9008951D830C83B701888199810E9451
:1007E000780EF0CFFB0101900020E9F73197AF01BF
:1007F000461B570B0C94D103EF92FF920F931F935C
:10080000CF93DF93CDB7DEB7A1970FB6F894DEBFD5
:100810000FBECDBF7C01CB01BA01F701118210825E
:1008200013821282158214828E010F5F1F4F22E005
:1008300044E00E940408009789F0BC01C7010E94AF
:10084000F203A1960FB6F894DEBF0FBECDBFDF91C5
:10085000CF911F910F91FF90EF900895C7010E94D3
:100860001703EFCF0F931F93CF93DF93CDB7DEB76F
:1008700062970FB6F894DEBF0FBECDBF8C01CB01DF
:10088000F8011182108213821282158214824AE0CA
:10089000BE016F5F7F4F0E944908BE016F5F7F4FAF
:1008A000C8010E94F20362960FB6F894DEBF0FBE35
:1008B000CDBFDF91CF911F910F910895FC0111825F
:1008C00010821382128215821482FB010190002093
:1008D000E9F73197AF01461B570B0C94D103CF9228
:1008E000DF92EF92FF92CF93DF93CDB7DEB72C97D5
:1008F0000FB6F894DEBF0FBECDBF8EE00E9444025B
:10090000BC01990F880B990B0E94D10A20E030E0BE
:100910004AEF53E40E94300B20E030E040E85AE315
:100920000E94300B6B017C0120912B0130912C0136
:1009300040912D0150912E010E94CA0A882329F16D
:10094000C0922B01D0922C01E0922D01F0922E0149
:10095000B701A601CE0107960E94FC036BE171E08E
:10096000CE0101960E945E04BE01695F7F4FCE01F9
:1009700001960E94BE030E940B01CE0101960E94C7
:100980002903CE0107960E9429032C960FB6F894EE
:10099000DEBF0FBECDBFDF91CF91FF90EF90DF9014
:1009A000CF900895CF92DF92EF92FF92CF93DF9393
:1009B000CDB7DEB72C970FB6F894DEBF0FBECDBF14
:1009C0008FE00E944402AC01A0E0B4E0A81BB90B88
:1009D00020E137E20E94530C6B017C0126E930E0F4
:1009E000DA010E94530C9B01AC01C701B6010E94C1
:1009F000340C8091290190912A018217930701F10B
:100A000030932A0120932901B901CE0107960E9453
:100A100032046EE171E0CE0101960E945E04BE01D7
:100A2000695F7F4FCE0101960E94BE030E940B01B9
:100A3000CE0101960E942903CE0107960E94290348
:100A40002C960FB6F894DEBF0FBECDBFDF91CF91CD
:100A5000FF90EF90DF90CF9008951F920F920FB606
:100A60000F9211242F933F934F935F936F937F9334
:100A70008F939F93AF93BF93EF93FF9387E391E09F
:100A80000E94B501FF91EF91BF91AF919F918F911E
:100A90007F916F915F914F913F912F910F900FBE7A
:100AA0000F901F9018951F920F920FB60F9211245E
:100AB0002F938F939F93EF93FF93E0914701F091D2
:100AC00048018081E0914D01F0914E0182FD1BC0F3
:100AD0009081809150018F5F8F7320915101821717
:100AE00041F0E0915001F0E0E95CFE4F958F80937A
:100AF0005001FF91EF919F918F912F910F900FBE19
:100B00000F901F9018958081F4CF1F920F920FB60F
:100B10000F9211242F933F938F939F93AF93BF9383
:100B20008091330190913401A0913501B09136014B
:100B30003091240123E0230F2D3758F50196A11D94
:100B4000B11D209324018093330190933401A0932D
:100B50003501B09336018091250190912601A09135
:100B60002701B09128010196A11DB11D8093250197
:100B700090932601A0932701B0932801BF91AF91D4
:100B80009F918F913F912F910F900FBE0F901F90CB
:100B9000189526E8230F0296A11DB11DD2CFE7E3D9
:100BA000F1E01382128288EE93E0A0E0B0E084834B
:100BB0009583A683B7838AE091E09183808385EC57
:100BC00090E09587848784EC90E09787868780EC17
:100BD00090E0918B808B81EC90E0938B828B82EC08
:100BE00090E0958B848B86EC90E0978B868B118EB2
:100BF000128E138E148E6AE171E086E192E00E94FB
:100C00005E046AE171E080E192E00E945E046AE1C4
:100C100071E08AE092E00E945E04EFEEF1E012865D
:100C2000118680E492E4AFE0B0E081839283A383F5
:100C3000B48315821682178210868FE694E0928B19
:100C4000818B1082138A148A158A168A1386148659
:100C500015861686E4EDF1E01286118680E693EEA5
:100C6000A6E1B0E081839283A383B48315821682C8
:100C70001782108682ED94E0928B818B1082138A0A
:100C8000148A158A168A1386148615861686089580
:100C9000CF93DF93CDB7DEB768970FB6F894DEBF7A
:100CA0000FBECDBF789484B5826084BD84B5816069
:100CB00084BD85B5826085BD85B5816085BD809127
:100CC0006E00816080936E0010928100809181009F
:100CD0008260809381008091810081608093810097
:100CE000809180008160809380008091B100846059
:100CF0008093B1008091B00081608093B0008091BA
:100D00007A00846080937A0080917A008260809378
:100D10007A0080917A00816080937A0080917A00D5
:100D2000806880937A001092C100E0914701F091B1
:100D3000480182E08083E0914301F09144011082F8
:100D4000E0914501F09146018FEC808310924F01B4
:100D5000E0914B01F0914C0186E08083E0914901E4
:100D6000F0914A01808180618083E0914901F09196
:100D70004A01808188608083E0914901F0914A01B5
:100D8000808180688083E0914901F0914A018081EF
:100D90008F7D80838FEE91E00E94E80284ED91E0E8
:100DA0000E94E80280E0C82E80E0D82E8FEE91E00D
:100DB0000E947B0284ED91E00E947B0287E391E038
:100DC0000E949501892B09F4FDC06AE171E0CE0112
:100DD00043960E945E040E94470197FD0CC08983E0
:100DE0001A8241E050E0BE016F5F7F4FCE01439613
:100DF0000E949203F0CF8F89988D892B61F0EB8848
:100E0000FC886AE370E0C7010E946D0E8C010E1928
:100E10001F09892B11F40FEF1FEF1093320100937C
:100E200031016AE171E0CE0101960E945E048F8972
:100E3000988D0097D1F078018017910708F47C0114
:100E4000EB89FC89EE0DFF1DB08010826B897C89D7
:100E5000CE0101966115710509F4C0C00E94F2032C
:100E6000EB89FC89EE0DFF1DB082BE016F5F7F4FE5
:100E700086E192E00E943103CE0101960E9429038F
:100E80008091160290911702009709F4AAC00E945F
:100E900022085B017093300160932F010F5F1F4F99
:100EA0008F88988C8016910628F4902F812F8401CA
:100EB000892E982E6AE171E0CE0101960E945E04AF
:100EC000EF88F88C0E151F05E0F48E149F0408F4CB
:100ED0007401EB89FC89EE0DFF1D908010826B89F7
:100EE0007C89600F711FCE0101966115710509F4AF
:100EF0007CC00E94F2038B899C89E80EF91EF701E1
:100F00009082BE016F5F7F4F8AE092E00E943103C2
:100F1000CE0101960E942903AA94AB2809F048C08B
:100F200040912B0150912C0160912D0170912E0167
:100F3000CE0101960E94FC036091290170912A0163
:100F4000CE010D960E94320418861F821A861986D9
:100F50001C861B866D857E856115710531F049897A
:100F60005A89CE0107960E94D10341E050E061E228
:100F700071E0CE0107960E949203811104C0CE0158
:100F800007960E941703BE016F5F7F4FCE01079641
:100F90000E94BE030E940B01CE0107960E94290306
:100FA000CE010D960E942903CE0101960E942903CD
:100FB0006AE171E0CE0143960E94F203CE014396AE
:100FC0000E942903C114D10409F4F0CE0E94A101AA
:100FD000882309F4EBCE0E940000E8CE0E9417039C
:100FE0003FCF60E070E0CB0154CF0E94170383CF66
:100FF0008AE092E00E94290380E192E00E942903A6
:1010000086E192E00C942903EF920F931F93CF9304
:10101000DF93E80134E047FD34E1042E000C550B6A
:1010200057FF03C0519541955109E32E022F242FFC
:10103000AE010E948308CE01DF91CF911F910F91E5
:10104000EF9008951F93FC0199278827BC01E8942D
:1010500011911032E9F3193010F01E30C8F31B3231
:1010600051F01D3249F4689406C00E945408610F83
:10107000711D811D911D119110531A30B0F33EF472
:1010800090958095709561957F4F8F4F9F4F1F91E1
:101090000895BB274A3031F4992322F4BDE290959C
:1010A00081959F4F0C946A08592F482F372F262F70
:1010B000660F771F881F991F660F771F881F991F5C
:1010C000620F731F841F951F660F771F881F991F5C
:1010D0000895BB27FB015527AA27880F991FAA1F30
:1010E000A41710F0A41B83955051B9F7A05DAA3343
:1010F00008F0A95DA193009779F7B111B19311920E
:10110000CB010C94BA0AA9E0B0E0E9E8F8E00C944D
:10111000F40B6A01F22EB02E102FFBE3AF2EA016B7
:1011200008F41BE31F5F012F27E0AE014F5F5F4F05
:101130000E94E209BC018981982F9970913009F4CD
:101140003FC09BE2E1FC04C09E2D9170E0FC3AC0E0
:101150005E2D5071E82FE87083FF46C084E0911146
:1011600001C083E0EF2DE81B8F1508F0E0E0D60109
:101170008E2F20E2552351F1992329F0D6019C931B
:10118000C60101966C0196012D5F3F4FE2FE24C01F
:101190008EE4D6018C9391E411969C93119712964C
:1011A0008C93D9018E2F90E281111BC0E20FF32F97
:1011B000F11D10828EEF9FEF2996ECE00C94100C3D
:1011C0009DE2C6CF90E2C4CF2D9381508111FCCF18
:1011D000CE0ED11CE0E0D0CF8EE6D6018C9391E606
:1011E000DBCF9D938150E0CF482F447082FF3DC0FC
:1011F00084E0911101C083E08F1510F4EF2DE81BFE
:10120000D6018E2F20E2552309F1992329F0D6012A
:101210009C93C60101966C0196012D5F3F4FE2FE43
:101220001BC089E4D6018C938EE411968C931197A0
:1012300086E412968C93D9018E2F90E2882309F4CC
:10124000B5CF9D938150FACF2D9381508111FCCF62
:10125000CE0ED11CE0E0D9CF89E6D6018C938EE684
:1012600011968C93119786E6E4CF9B0177FF02C01D
:1012700030E020E0A1E0B0E0911102C0B0E0A0E0D9
:10128000F9013196AE0FBF1F8B2C912CBB2009F4B6
:1012900061C05401EFEFAE1ABE0AAA0DBB1DFA16CB
:1012A0001B0619F014F04F2D4A1B511188C0E3FCA6
:1012B00059C07601A42FB0E2A1114FC0C40ED11CB9
:1012C000992309F45BC040E0D6011196F6019083A2
:1012D0006D01552309F448C0012F060F9A81582F3C
:1012E000507184FF03C0913309F4015010160CF0C3
:1012F00047C0093008F008E0EEE2FE2E5B01A01ABC
:10130000B10885019194819491082F3F320729F407
:10131000D601FC92F60131966F016217730794F1C2
:10132000021713077CF5DB01A21BB30BAA24A394BD
:10133000B12CAC0EBD1EAA0DBB1D11968C91215077
:101340003109D601119628153905F4F0F60180838C
:101350006D01DBCFB12CA12CA0CFF701B1937F01A0
:10136000A150AACF9111B0CFD601942F50E302C063
:101370005D9391509111FCCFC40ED11C40E0ACCFD5
:1013800001E0BACF80E3DBCF6217730731F4963305
:1013900088F4953311F4552369F0F6018083FD013B
:1013A000842F90E2811108C0A40FB11D1C9290E01F
:1013B00080E002CF81E3F1CF91938150F3CF91117F
:1013C00083CF8ACF283008F027E03327DA01990F3E
:1013D000311D87FD916000966105710539F4326019
:1013E0002E5F3D9330E32A95E1F708959F3F30F05B
:1013F00080387105610509F03C5F3C5F3D93913099
:1014000008F08068911DDF93CF931F930F93FF9295
:10141000EF92192F987F9695E92F96959695E90F5B
:10142000FF27EE53FF4F99273327EE24FF24A70110
:10143000E70105900894079428F4360FE71EF81E7C
:10144000491F511D660F771F881F991F0694A1F72A
:101450000590079428F4E70EF81E491F561FC11D7A
:10146000770F881F991F661F0694A1F705900794B0
:1014700028F4F80E491F561FC71FD11D880F991F4A
:10148000661F771F0694A1F70590079420F4490F73
:10149000561FC71FD81F990F661F771F881F0694F6
:1014A000A9F784911095177041F0D695C795579577
:1014B0004795F794E7941A95C1F7E8E6F0E0689449
:1014C0001590159135916591959105907FE27395F1
:1014D000E118F10A430B560BC90BD009C0F7E10C18
:1014E000F11E431F561FC91FD01D7EF4703311F427
:1014F0008A95E6CFE894015030F0080F0AF40027EF
:10150000021708F4202F2395022F7A3328F079E36D
:101510007D932A95E9F710C07D932A9589F6069464
:1015200097956795379517951794E118F10A430B2E
:10153000560BC90BD00998F023957E9173957A3399
:1015400008F070E37C932013B8F77E9170617D936F
:1015500030F0839571E37D9370E32A95E1F71124D0
:10156000EF90FF900F911F91CF91DF91992787FD09
:1015700090950895DC01FC01672F71917723E1F7C5
:10158000329704C07C916D9370836291AE17BF0750
:10159000C8F308950E940C0B08F481E00895E894C4
:1015A00009C097FB3EF490958095709561957F4FAB
:1015B0008F4F9F4F9923A9F0F92F96E9BB27939559
:1015C000F695879577956795B795F111F8CFFAF469
:1015D000BB0F11F460FF1BC06F5F7F4F8F4F9F4F9A
:1015E00016C0882311F096E911C0772321F09EE8F8
:1015F000872F762F05C0662371F096E8862F70E05E
:1016000060E02AF09A95660F771F881FDAF7880F37
:101610009695879597F90895990F0008550FAA0B8D
:10162000E0E8FEEF16161706E807F907C0F01216F5
:101630001306E407F50798F0621B730B840B950BF8
:1016400039F40A2661F0232B242B252B21F408954D
:101650000A2609F4A140A6958FEF811D811D0895EA
:101660000E94430B0C94B40B0E94A60B38F00E940E
:10167000AD0B20F0952311F00C949D0B0C94A30B53
:1016800011240C94E80B0E94C50B70F3959FC1F3D5
:10169000950F50E0551F629FF001729FBB27F00D20
:1016A000B11D639FAA27F00DB11DAA1F649F662775
:1016B000B00DA11D661F829F2227B00DA11D621FC4
:1016C000739FB00DA11D621F839FA00D611D221F7E
:1016D000749F3327A00D611D231F849F600D211D62
:1016E000822F762F6A2F11249F5750409AF0F1F0E5
:1016F00088234AF0EE0FFF1FBB1F661F771F881F4E
:1017000091505040A9F79E3F510580F00C949D0BDD
:101710000C94E80B5F3FE4F3983ED4F386957795FD
:101720006795B795F795E7959F5FC1F7FE2B880FF3
:10173000911D9695879597F9089597F99F6780E889
:1017400070E060E008959FEF80EC089500240A9413
:101750001616170618060906089500240A9412168C
:101760001306140605060895092E0394000C11F4BF
:10177000882352F0BB0F40F4BF2B11F460FF04C06C
:101780006F5F7F4F8F4F9F4F089557FD9058440FC5
:10179000551F59F05F3F71F04795880F97FB991FD0
:1017A00061F09F3F79F0879508951216130614068D
:1017B000551FF2CF4695F1DF08C01616170618061A
:1017C000991FF1CF86957105610508940895E894F5
:1017D000BB2766277727CB0197F908952F923F9271
:1017E0004F925F926F927F928F929F92AF92BF9231
:1017F000CF92DF92EF92FF920F931F93CF93DF93DD
:10180000CDB7DEB7CA1BDB0B0FB6F894DEBF0FBE39
:10181000CDBF09942A88398848885F846E847D8486
:101820008C849B84AA84B984C884DF80EE80FD8088
:101830000C811B81AA81B981CE0FD11D0FB6F894FE
:10184000DEBF0FBECDBFED010895A29FB001B39FD3
:10185000C001A39F700D811D1124911DB29F700DB9
:10186000811D1124911D0895052E97FB1EF40094EF
:101870000E944B0C57FD07D00E945A0C07FC03D066
:101880004EF40C944B0C50954095309521953F4F5C
:101890004F4F5F4F089590958095709561957F4F5C
:1018A0008F4F9F4F08950E94250CB7FF0895821B0C
:1018B000930B0895A1E21A2EAA1BBB1BFD010DC0BC
:1018C000AA1FBB1FEE1FFF1FA217B307E407F507F0
:1018D00020F0A21BB30BE40BF50B661F771F881FCC
:1018E000991F1A9469F760957095809590959B0162
:1018F000AC01BD01CF010895EE0FFF1F0590F491DB
:10190000E02D09940F931F93CF93DF9382309105BD
:1019100010F482E090E0E0911E02F0911F0230E0AE
:1019200020E0B0E0A0E0309799F42115310509F4EA
:101930004AC0281B390B24303105D8F58A819B8198
:101940006115710589F1FB0193838283FE0111C04A
:10195000408151810281138148175907E0F04817EF
:10196000590799F4109761F012960C9312971396F9
:101970001C933296CF01DF91CF911F910F91089563
:1019800000931E0210931F02F4CF2115310551F070
:101990004217530738F0A901DB019A01BD01DF01AD
:1019A000F801C1CFEF01F9CF90931F0280931E027F
:1019B000CDCFFE01E20FF31F8193919322503109A5
:1019C00039832883D7CF20911C0230911D02232B0D
:1019D00041F4209102013091030130931D022093C4
:1019E0001C0220910001309101012115310541F4C3
:1019F0002DB73EB74091040150910501241B350BD2
:101A0000E0911C02F0911D02E217F307A0F42E1BD7
:101A10003F0B2817390778F0AC014E5F5F4F241752
:101A2000350748F04E0F5F1F50931D0240931C0274
:101A3000819391939FCFF0E0E0E09CCFCF93DF9331
:101A40000097E9F0FC01329713821282A0911E02E6
:101A5000B0911F02ED0130E020E01097A1F4208149
:101A60003181820F931F20911C0230911D02281793
:101A7000390709F061C0F0931D02E0931C02DF9169
:101A8000CF910895EA01CE17DF07E8F54A815B811F
:101A90009E0141155105B1F7E901FB83EA834991A4
:101AA0005991C40FD51FEC17FD0761F48081918116
:101AB0000296840F951FE90199838883828193811F
:101AC0009B838A83F0E0E0E012968D919C911397BE
:101AD0000097B9F52D913C911197CD010296820F97
:101AE000931F20911C0230911D022817390739F6E7
:101AF000309751F510921F0210921E02B0931D02F2
:101B0000A0931C02BCCFD383C28340815181840F38
:101B1000951FC817D90761F44E5F5F4F888199817F
:101B2000480F591F518340838A819B81938382830D
:101B30002115310509F0B0CFF0931F02E0931E028A
:101B40009ECFFD01DC01C0CF13821282D7CFB0E05F
:101B5000A0E0EDEAFDE00C94F00B8C01009751F44D
:101B6000CB010E94820C8C01C801CDB7DEB7E0E149
:101B70000C940C0CFC01E60FF71F9C01225031095C
:101B8000E217F30708F49DC0D901CD91DC911197BC
:101B9000C617D70798F0C530D10530F3CE010497AA
:101BA0008617970708F3C61BD70B2297C193D193CB
:101BB0006D937C93CF010E941E0DD6CF5B01AC1AB2
:101BC000BD0A4C018C0E9D1EA0911E02B0911F02F9
:101BD000512C412CF12CE12C109731F580911C02F5
:101BE00090911D028815990509F05CC046165706AC
:101BF00008F058C08091000190910101009741F4D4
:101C00008DB79EB74091040150910501841B950B3F
:101C1000E817F90708F055C0F0931D02E0931C0285
:101C2000F90171836083A0CF8D919C9111971296D9
:101C30006C90129713967C901397A815B90559F5D7
:101C40006C0142E0C40ED11CCA14DB0420F1AC01CB
:101C50004A195B09DA011296159780F06282738245
:101C600051834083D9016D937C93E114F10471F0A9
:101C7000D7011396FC93EE93129776CF22968C0F92
:101C80009D1FF90191838083F301EFCFF0931F0231
:101C9000E0931E0269CF4816590608F42C017D0115
:101CA000D3019ACFCB010E94820C7C01009749F0AE
:101CB000AE01B8010E94640EC8010E941E0D87018A
:101CC00053CF10E000E050CFFB01DC0102C00190D7
:101CD0000D9241505040D8F70895FC01819186172C
:101CE00021F08823D9F7992708953197CF010895D6
:101CF000FB01DC0101900D920020E1F7089510E056
:101D0000C2EBD0E004C0FE010E947C0C2196C33BD4
:081D1000D107C9F7F894FFCFD9
:101D180000002002800000000000D701DE0024013E
:101D280024029501330187010D0A00333A00323A43
:041D3800002C00007B
:107E0000112484B714BE81FFF0D085E080938100F7
:107E100082E08093C00088E18093C10086E0809377
:107E2000C20080E18093C4008EE0C9D0259A86E02C
:107E300020E33CEF91E0309385002093840096BBD3
:107E4000B09BFECF1D9AA8958150A9F7CC24DD24C4
:107E500088248394B5E0AB2EA1E19A2EF3E0BF2EE7
:107E6000A2D0813461F49FD0082FAFD0023811F036
:107E7000013811F484E001C083E08DD089C08234E0
:107E800011F484E103C0853419F485E0A6D080C0E4
:107E9000853579F488D0E82EFF2485D0082F10E0AE
:107EA000102F00270E291F29000F111F8ED06801E7
:107EB0006FC0863521F484E090D080E0DECF843638
:107EC00009F040C070D06FD0082F6DD080E0C81688
:107ED00080E7D80618F4F601B7BEE895C0E0D1E017
:107EE00062D089930C17E1F7F0E0CF16F0E7DF06D8
:107EF00018F0F601B7BEE89568D007B600FCFDCFD4
:107F0000A601A0E0B1E02C9130E011968C91119780
:107F100090E0982F8827822B932B1296FA010C0160
:107F200087BEE89511244E5F5F4FF1E0A038BF0790
:107F300051F7F601A7BEE89507B600FCFDCF97BE46
:107F4000E89526C08437B1F42ED02DD0F82E2BD052
:107F50003CD0F601EF2C8F010F5F1F4F84911BD097
:107F6000EA94F801C1F70894C11CD11CFA94CF0C13
:107F7000D11C0EC0853739F428D08EE10CD085E9AC
:107F80000AD08FE07ACF813511F488E018D01DD067
:107F900080E101D065CF982F8091C00085FFFCCF94
:107FA0009093C60008958091C00087FFFCCF809118
:107FB000C00084FD01C0A8958091C6000895E0E648
:107FC000F0E098E1908380830895EDDF803219F02E
:107FD00088E0F5DFFFCF84E1DECF1F93182FE3DFCA
:107FE0001150E9F7F2DF1F91089580E0E8DFEE27F6
:047FF000FF270994CA
:027FFE00040479
:0400000300007E007B
:00000001FF
