:100000000C945E000C9486000C9486000C94860080
:100010000C9486000C9486000C9486000C94860048
:100020000C9486000C9486000C9486000C94420577
:100030000C9486000C9486000C9486000C94860028
:100040000C94A0040C9486000C9410050C94EA0403
:100050000C9486000C9486000C9486000C94860008
:100060000C9486000C948600000000080002010039
:100070000003040700000000000000000000000072
:10008000250028002B0000000000240027002A0083
:10009000040404040404040402020202020203032E
:1000A0000303030301020408102040800102040836
:1000B0001020010204081020FE05C80811241FBEEC
:1000C000CFEFD8E0DEBFCDBF11E0A0E0B1E0E6EFBA
:1000D000F7E102C005900D92A032B107D9F722E0F6
:1000E000A0E2B1E001C01D92A031B207E1F710E03B
:1000F000CDE5D0E004C02197FE010E94EB09CC358C
:10010000D107C9F70E9480060C94EE0B0C940000F6
:1001100090E0FC01EC55FF4F249180579F4FFC016C
:100120008491882399F090E0880F991FFC01EA5789
:10013000FF4FA591B491FC01E458FF4F8591949134
:100140008FB7F894EC91E22BEC938FBF089508954C
:10015000AF92BF92CF92DF92EF92FF920F931F93D5
:10016000CF93DF936C017B018B01040F151FEB0113
:100170005E01AE18BF08C017D10759F06991D601CA
:10018000ED91FC910190F081E02DC6010995892B3C
:1001900079F7C501DF91CF911F910F91FF90EF90FB
:1001A000DF90CF90BF90AF900895FC01538D448DA8
:1001B000252F30E0842F90E0821B930B541710F012
:1001C000CF96089501970895FC01918D828D98171F
:1001D00061F0A28DAE0FBF2FB11D5D968C91928DF7
:1001E0009F5F9F73928F90E008958FEF9FEF089528
:1001F0002FB7F89480912E0190912F01A09130019A
:10020000B09131012FBF80933A0190933B01A093AD
:100210003C01B0933D0182E391E00E94E40097FF2E
:1002200026C02FB7F89480912E0190912F01A091B4
:100230003001B09131012FBF40913A0150913B0103
:1002400060913C0170913D01841B950BA60BB70B8F
:100250004091360150913701609138017091390118
:1002600084179507A607B707B0F28FEF9FEF0895A1
:10027000FC01918D828D981731F0828DE80FF11D70
:10028000858D90E008958FEF9FEF0895FC01918D8B
:10029000228D892F90E0805C9F4F821B91098F7384
:1002A0009927089582E391E00E94460121E0892B7D
:1002B00009F420E0822F089580E090E0892B29F056
:1002C0000E94520181110C9400000895FC01A48D3C
:1002D000A80FB92FB11DA35ABF4F2C91848D90E068
:1002E00001968F739927848FA689B7892C93A0894B
:1002F000B1898C91837080648C93938D848D9813D5
:1003000006C00288F389E02D80818F7D8083089567
:10031000EF92FF920F931F93CF93DF93EC0181E055
:10032000888F9B8D8C8D98131AC0E889F9898081FC
:1003300085FF15C09FB7F894EE89FF896083E8892F
:10034000F98980818370806480839FBF81E090E021
:10035000DF91CF911F910F91FF90EF900895F62EAE
:100360000B8D10E00F5F1F4F0F731127E02E8C8D48
:100370008E110CC00FB607FCFACFE889F98980818D
:1003800085FFF5CFCE010E946601F1CFEB8DEC0F1A
:10039000FD2FF11DE35AFF4FF0829FB7F8940B8FAA
:1003A000EA89FB8980818062CFCFCF93DF93EC0114
:1003B000888D8823B9F0AA89BB89E889F9898C914D
:1003C00085FD03C0808186FD0DC00FB607FCF7CF09
:1003D0008C9185FFF2CF808185FFEDCFCE010E9409
:1003E0006601E9CFDF91CF91089590E0FC01E859D3
:1003F000FF4F2491FC01EC55FF4F3491FC01E05775
:10040000FF4FE491EE23C9F0222339F0233001F1AC
:10041000A8F4213019F1223029F1F0E0EE0FFF1F8E
:10042000E458FF4FA591B4918FB7F894EC91611106
:1004300026C030953E233C938FBF08952730A9F006
:100440002830C9F0243049F7809180008F7D03C0A7
:10045000809180008F7780938000DFCF84B58F7785
:1004600084BDDBCF84B58F7DFBCF8091B0008F77CB
:100470008093B000D2CF8091B0008F7DF9CF3E2B1A
:10048000DACFCF92DF92EF92FF92CF93DF93EC011E
:10049000603282E07807CCF5653B710514F064EBBF
:1004A00070E0898128E830E0281B310987FD339509
:1004B000220F331F220F331F6901330FEE08FF088D
:1004C0008A8128E532E0281B310987FD3395220F08
:1004D000331F220F331F032E000C440B550B2C1916
:1004E0003D094E095F09DB0177FF02C0B0E0A0E0E3
:1004F0000E946F0924EB30E040E050E00E94450983
:10050000C20ED31EE41EF51EB601E881EC3070F574
:10051000298188E890E0821B910927FD9395880F37
:10052000991F880F991F681779077CF02A8188E541
:1005300092E0821B910927FD9395880F991F880FE0
:10054000991F681779070CF4CB010297880F991F40
:100550004FB7F8942E2F30E0F901EE0FFF1FE20F96
:10056000F31FE153FE4F928381834FBFDF91CF9101
:10057000FF90EF90DF90CF900895892B79F410923F
:10058000800082E0809381001092850010928400A8
:10059000B19A80916F00826080936F0008958F926E
:1005A0009F92AF92BF920F931F93CF93DF93CDB7DC
:1005B000DEB7A1970FB6F894DEBF0FBECDBF19A26C
:1005C000423008F44AE08E010F5D1F4F842E912CBB
:1005D000B12CA12CA50194010E94AE09E62FB9010E
:1005E000CA01EA3044F5E05DD801EE938D01232B7A
:1005F000242B252B79F790E080E0109769F0FD011E
:1006000001900020E9F73197AF014A1B5B0BBD0158
:1006100082E391E00E94A800A1960FB6F894DEBF95
:100620000FBECDBFDF91CF911F910F91BF90AF90C3
:100630009F908F900895E95CD7CFCF92DF92EF9291
:10064000FF92CF93DF936C01990FEE08FF08F7FE3E
:1006500019C06DE282E391E00E948801EC016627F7
:100660007727CB016C197D098E099F094AE00E940A
:10067000CF028C0F9D1FDF91CF91FF90EF90DF9005
:10068000CF9008954AE0C701B601DF91CF91FF9066
:10069000EF90DF90CF900C94CF02CF93DF93EC01DB
:1006A00088819981009711F00E948D0A1982188221
:1006B0001D821C821B821A82DF91CF910895FC015A
:1006C00080819181009711F00C948D0A08950F9309
:1006D0001F93CF93DF938C01EB01FC01808191810B
:1006E0000097E1F06881798161157105A9F0428177
:1006F00053812C813D814217530770F00E94E70B14
:100700008C819D81F801958384831D821C82DF91F9
:10071000CF911F910F9108950E948D0A8881998130
:10072000F801918380838A819B81938382838C816A
:100730009D8195838483198218821B821A82E5CF5A
:100740000F931F93CF93DF93EC01888199810097DA
:1007500059F02A813B812617370730F081E0DF917D
:10076000CF911F910F9108958B016F5F7F4F0E9472
:10077000160B009759F0998388831B830A832C8179
:100780003D81232B59F7FC011082E8CF80E0E7CFB1
:10079000EF92FF920F931F93CF93DF936115710533
:1007A00041F480E0DF91CF911F910F91FF90EF9086
:1007B000089541155105B1F07B01EC010C811D81BB
:1007C000040F151FB8010E94A003882351F328814C
:1007D00039818C819D81B701820F931F0E94E70BA5
:1007E0001D830C8381E0DECFEF92FF920F931F9366
:1007F000CF93DF93EC017B018A01BA010E94A00331
:1008000081110BC0CE010E944D03CE01DF91CF912B
:100810001F910F91FF90EF9008951D830C83B701F6
:10082000888199810E94E70BF0CFFC011182108230
:10083000138212821582148250E040E06EE171E072
:100840000C94F403FB0101900020E9F73197AF010C
:10085000461B570B0C94F403CF92DF92EF92FF925A
:100860000F931F93CF93DF936C017B018A0146178F
:10087000570720F48F2D7A01062F182FC6010E94EA
:100880001504C091FE01D091FF01EC16FD06F8F4AD
:100890000C171D0708F4E801E091FA01F091FB0143
:1008A000EC0FFD1F108110826091FA017091FB0125
:1008B0006E0D7F1DC6016115710599F00E9422041D
:1008C0008091FA019091FB01C80FD91F1883C601CE
:1008D000DF91CF911F910F91FF90EF90DF90CF901C
:1008E00008950E944D03ECCF0F931F93CF93DF9396
:1008F000CDB7DEB762970FB6F894DEBF0FBECDBF9F
:100900008C01CB01F80111821082138212821582B0
:1009100014824AE0BE016F5F7F4F0E94FB08BE0158
:100920006F5F7F4FC8010E94220462960FB6F89451
:10093000DEBF0FBECDBFDF91CF911F910F91089504
:100940001F920F920FB60F9211242F933F938F9304
:100950009F93AF93BF9380912E0190912F01A0910F
:100960003001B091310130912D0123E0230F2D375B
:1009700058F50196A11DB11D20932D0180932E01E4
:1009800090932F01A0933001B09331018091290100
:1009900090912A01A0912B01B0912C010196A11DEB
:1009A000B11D8093290190932A01A0932B01B0934C
:1009B0002C01BF91AF919F918F913F912F910F90FB
:1009C0000FBE0F901F90189526E8230F0296A11DC9
:1009D000B11DD2CF1F920F920FB60F9211242F93F9
:1009E0003F934F935F936F937F938F939F93AF93B7
:1009F000BF93EF93FF9382E391E00E946601FF9122
:100A0000EF91BF91AF919F918F917F916F915F9186
:100A10004F913F912F910F900FBE0F901F901895FF
:100A20001F920F920FB60F9211242F938F939F93C3
:100A3000EF93FF93E0914201F09143018081E091B7
:100A40004801F091490182FD1BC0908180914B01CA
:100A50008F5F8F7320914C01821741F0E0914B0121
:100A6000F0E0EE5CFE4F958F80934B01FF91EF918C
:100A70009F918F912F910F900FBE0F901F901895FF
:100A80008081F4CF1F920F920FB60F9211242F93F3
:100A90003F934F935F936F937F938F939F93AF9306
:100AA000BF93CF93DF93EF93FF9380912001C09189
:100AB000F301D0E087FF24C01092850010928400DB
:100AC000809120018F5F8093200180912001082E6A
:100AD000000C990B8C179D0724F4809120018C3019
:100AE000C4F18091840090918500049680349C49E3
:100AF00008F47AC08091840090918500049676C0B5
:100B000080912001082E000C990B8C179D07C4F6CC
:100B1000E09120018E2FEE0F990BFC01EE0FFF1FCD
:100B2000E80FF91FE153FE4F808186FFC9CFE091A6
:100B300020018E2FEE0F990BFC01EE0FFF1FE80F27
:100B4000F91FE153FE4F808160E08F730E94F50131
:100B5000B7CF2091840030918500E09120018E2F45
:100B6000EE0F990BFC01EE0FFF1FE80FF91FE15389
:100B7000FE4F81819281820F931F90938900809311
:100B80008800E09120018E2FEE0F990BFC01EE0FF3
:100B9000FF1FE80FF91FE153FE4F808186FF11C050
:100BA000E09120018E2FEE0F990BFC01EE0FFF1F3D
:100BB000E80FF91FE153FE4F808161E08F730E94BF
:100BC000F501FF91EF91DF91CF91BF91AF919F918F
:100BD0008F917F916F915F914F913F912F910F90E6
:100BE0000FBE0F901F90189580E49CE990938900A8
:100BF000809388008FEF80932001E3CF109235011E
:100C00001092340188EE93E0A0E0B0E080933601CA
:100C100090933701A0933801B09339018CE091E0B3
:100C2000909333018093320185EC90E090933F01E3
:100C300080933E0184EC90E09093410180934001C9
:100C400080EC90E0909343018093420181EC90E02E
:100C5000909345018093440182EC90E0909347018A
:100C60008093460186EC90E090934901809348017F
:100C700010924B0110924C0110924D0110924E01B6
:100C80008091F3018C30A0F591E0980F9093F301DF
:100C90008093090290E0FC01EE0FFF1FE80FF91F9F
:100CA000E153FE4F88EB9BE0928381838091F301B7
:100CB0008C3010F591E0980F9093F3018093060229
:100CC00090E0FC01EE0FFF1FE80FF91FE153FE4F0C
:100CD00088EB9BE09283818380E092E00E94150480
:100CE0008AEF91E00E94150484EF91E00C941504C2
:100CF0008FEF80930902DACF8FEF80930602ECCF5B
:100D0000CF93DF93CDB7DEB762970FB6F894DEBF0F
:100D10000FBECDBF789484B5826084BD84B58160F8
:100D200084BD85B5826085BD85B5816085BD8091B6
:100D30006E00816080936E0010928100809181002E
:100D40008260809381008091810081608093810026
:100D5000809180008160809380008091B1008460E8
:100D60008093B1008091B00081608093B000809149
:100D70007A00846080937A0080917A008260809308
:100D80007A0080917A00816080937A0080917A0065
:100D9000806880937A001092C100E0914201F09146
:100DA000430182E08083E0913E01F0913F01108297
:100DB000E0914001F09141018FEC808310924A0153
:100DC000E0914601F091470186E08083E091440183
:100DD000F0914501808180618083E0914401F09130
:100DE0004501808188608083E0914401F091450154
:100DF000808180688083E0914401F0914501808189
:100E00008F7D8083809109028C3008F042C085E09C
:100E10000E94880080910902282F30E0F901EE0F2E
:100E2000FF1FE20FF31FE153FE4F9081907C95600E
:100E3000908310920A0210920B022CE0622F0E9403
:100E4000DF09829FB001112430E020E0AB01420FA6
:100E5000531FFA01EE0FFF1FE40FF51FE153FE4F82
:100E6000908196FD08C02F5F3F4F2C30310571F700
:100E700090E00E94BD02E09109028E2F90E0FC01FB
:100E8000EE0FFF1FE80FF91FE153FE4F80818064D2
:100E9000808370E060E089E092E00E9441028091EE
:100EA00006028C3008F042C083E00E9488008091E6
:100EB0000602282F30E0F901EE0FFF1FE20FF31FAB
:100EC000E153FE4F9081907C9360908310920702D3
:100ED000109208022CE0622F0E94DF09829FB0016D
:100EE000112430E020E0AB01420F531FFA01EE0F56
:100EF000FF1FE40FF51FE153FE4F908196FD08C0E0
:100F00002F5F3F4F2C30310571F790E00E94BD02FA
:100F1000E09106028E2F90E0FC01EE0FFF1FE80F1C
:100F2000F91FE153FE4F80818064808370E060E0B0
:100F300086E092E00E94410280E0C82E80E0D82E38
:100F400082E391E00E944601181619060CF09EC03B
:100F5000CE0101960E9415040E94F80097FD0CC076
:100F60008F83188641E050E0BE01695F7F4FCE015C
:100F700001960E94C803F0CFBE016F5F7F4F8AEFDA
:100F800091E00E946703CE0101960E945F03809169
:100F9000FE019091FF01892B71F0E090FA01F09031
:100FA000FB016AE370E0C7010E94DC0B8C010E19A3
:100FB0001F09892B11F40FEF1FEF109328010093E5
:100FC0002701A80170E060E0CE0101960E942C0488
:100FD000BE016F5F7F4F80E092E00E946703CE0109
:100FE00001960E945F038091000290910102009798
:100FF00009F458C00E94D4087B01709326016093C5
:1010000025014091FE015091FF01B8016F5F7F4FB4
:10101000CE0101960E942C04BE016F5F7F4F84EFCA
:1010200091E00E946703CE0101960E945F038091C8
:10103000F4019091F5010097C9F10E94D40842E0B3
:10104000E416F104B9F143E0E416F10409F446C0F2
:10105000EA94EF28A9F440912301509124016417E8
:10106000750741F0709324016093230189E092E0B9
:101070000E94410280912301909124010E941D034E
:1010800066E071E08AEF91E00E942204C114D1046D
:1010900009F456CF0E945201882309F451CF0E94CF
:1010A00000004ECF60E070E0CB01A6CF60E070E0C2
:1010B000CB01C5CF409121015091220164177507E2
:1010C00041F0709322016093210186E092E00E943A
:1010D00041028091210190912201D0CF60912101A4
:1010E00070912201CE010D960E947404609123013B
:1010F00070912401CE0101960E94740418861F820B
:101100001A8619861C861B8669817A81611571058C
:1011100031F04D815E81CE0107960E94F40341E0DB
:1011200050E06AE171E0CE0107960E94C803811188
:1011300004C0CE0107960E944D0349895A896D85E6
:101140007E85CE0107960E94C803811104C0CE019E
:1011500007960E944D034B855C856F81788582E3FD
:1011600091E00E94A80042E050E06CE171E082E36F
:1011700091E00E94A800CE0107960E945F03CE0175
:1011800001960E945F03CE010D960E945F0378CF07
:1011900084EF91E00E945F038AEF91E00E945F0379
:1011A00080E092E00C945F031F93FC01992788274D
:1011B000BC01E89411911032E9F3193010F01E309F
:1011C000C8F31B3251F01D3249F4689406C00E94E6
:1011D0000609610F711D811D911D119110531A3067
:1011E000B0F33EF490958095709561957F4F8F4F49
:1011F0009F4F1F910895BB274A3031F4992322F461
:10120000BDE2909581959F4F0C941C09592F482F52
:10121000372F262F660F771F881F991F660F771F9E
:10122000881F991F620F731F841F951F660F771FFA
:10123000881F991F0895BB27FB015527AA27880FF0
:10124000991FAA1FA41710F0A41B83955051B9F73A
:10125000A05DAA3308F0A95DA193009779F7B111B9
:10126000B1931192CB010C943509DC01FC01672F7D
:1012700071917723E1F7329704C07C916D9370836D
:101280006291AE17BF07C8F30895052E97FB1EF4B1
:1012900000940E945C0957FD07D00E94AE0907FC2C
:1012A00003D04EF40C945C095095409530952195EF
:1012B0003F4F4F4F5F4F0895909580957095619582
:1012C0007F4F8F4F9F4F08950E94D009A59F900D8B
:1012D000B49F900DA49F800D911D11240895B7FF18
:1012E0000C9464090E946409821B930B08952F9249
:1012F0003F924F925F926F927F928F929F92AF92A6
:10130000BF92CF92DF92EF92FF920F931F93CF93F2
:10131000DF93CDB7DEB7CA1BDB0B0FB6F894DEBF89
:101320000FBECDBF09942A88398848885F846E84AF
:101330007D848C849B84AA84B984C884DF80EE80F9
:10134000FD800C811B81AA81B981CE0FD11D0FB602
:10135000F894DEBF0FBECDBFED010895A1E21A2EB5
:10136000AA1BBB1BFD010DC0AA1FBB1FEE1FFF1F49
:10137000A217B307E407F50720F0A21BB30BE40B99
:10138000F50B661F771F881F991F1A9469F76095E0
:101390007095809590959B01AC01BD01CF0108959A
:1013A000A29FB001B39FC001A39F700D811D1124A6
:1013B000911DB29F700D811D1124911D0895991BDF
:1013C00079E004C0991F961708F0961B881F7A953C
:1013D000C9F780950895EE0FFF1F0590F491E02D59
:1013E00009940F931F93CF93DF938230910510F4EC
:1013F00082E090E0E0910E02F0910F0230E020E0F8
:10140000B0E0A0E0309799F42115310509F44AC005
:10141000281B390B24303105D8F58A819B81611551
:10142000710589F1FB0193838283FE0111C0408124
:1014300051810281138148175907E0F04817590775
:1014400099F4109761F012960C93129713961C93CF
:101450003296CF01DF91CF911F910F9108950093A4
:101460000E0210930F02F4CF2115310551F04217EF
:10147000530738F0A901DB019A01BD01DF01F80132
:10148000C1CFEF01F9CF90930F0280930E02CDCF21
:10149000FE01E20FF31F81939193225031093983AA
:1014A0002883D7CF20910C0230910D02232B41F4D9
:1014B000209102013091030130930D0220930C0220
:1014C00020910001309101012115310541F42DB722
:1014D0003EB74091040150910501241B350BE0916A
:1014E0000C02F0910D02E217F307A0F42E1B3F0B44
:1014F0002817390778F0AC014E5F5F4F2417350786
:1015000048F04E0F5F1F50930D0240930C028193E1
:1015100091939FCFF0E0E0E09CCFCF93DF930097D3
:10152000E9F0FC01329713821282A0910E02B09171
:101530000F02ED0130E020E01097A1F4208131810D
:10154000820F931F20910C0230910D02281739074A
:1015500009F061C0F0930D02E0930C02DF91CF918E
:101560000895EA01CE17DF07E8F54A815B819E0105
:1015700041155105B1F7E901FB83EA83499159917E
:10158000C40FD51FEC17FD0761F48081918102968D
:10159000840F951FE90199838883828193819B83BE
:1015A0008A83F0E0E0E012968D919C91139700976A
:1015B000B9F52D913C911197CD010296820F931FA1
:1015C00020910C0230910D022817390739F6309717
:1015D00051F510920F0210920E02B0930D02A093DB
:1015E0000C02BCCFD383C28340815181840F951FED
:1015F000C817D90761F44E5F5F4F88819981480F02
:10160000591F518340838A819B8193838283211553
:10161000310509F0B0CFF0930F02E0930E029ECF98
:10162000FD01DC01C0CF13821282D7CFB0E0A0E071
:10163000ECE1FBE00C9479098C01009751F4CB01AB
:101640000E94F1098C01C801CDB7DEB7E0E10C942E
:101650009509FC01E60FF71F9C0122503109E217A2
:10166000F30708F49DC0D901CD91DC911197C617FD
:10167000D70798F0C530D10530F3CE01049786170F
:10168000970708F3C61BD70B2297C193D1936D938D
:101690007C93CF010E948D0AD6CF5B01AC1ABD0AA4
:1016A0004C018C0E9D1EA0910E02B0910F02512C88
:1016B000412CF12CE12C109731F580910C02909186
:1016C0000D028815990509F05CC04616570608F00A
:1016D00058C08091000190910101009741F48DB7AD
:1016E0009EB74091040150910501841B950BE817AA
:1016F000F90708F055C0F0930D02E0930C02F901D0
:1017000071836083A0CF8D919C91119712966C90FC
:10171000129713967C901397A815B90559F56C018B
:1017200042E0C40ED11CCA14DB0420F1AC014A19FA
:101730005B09DA011296159780F0628273825183F9
:101740004083D9016D937C93E114F10471F0D701CA
:101750001396FC93EE93129776CF22968C0F9D1FD3
:10176000F90191838083F301EFCFF0930F02E093AF
:101770000E0269CF4816590608F42C017D01D301E9
:101780009ACFCB010E94F1097C01009749F0AE018C
:10179000B8010E94D30BC8010E948D0A870153CF64
:1017A00010E000E050CFFB01DC0102C001900D927F
:1017B00041505040D8F70895FC018191861721F0DF
:1017C0008823D9F7992708953197CF010895FB0110
:1017D000DC0101900D920020E1F7089510E0CDE5C5
:1017E000D0E004C0FE010E94EB092196CE35D1075E
:0617F000C9F7F894FFCFD9
:1017F6000000100280000000000000008801A80020
:10180600D500D5014601E40038012C000D0A000080
:00000001FF
